{
  "transactions": [
    {
      "hash": "0x8a815fbcb7d74650aa4f9ee67312e3012634f89fde8e4eaf8494394b7c0927ae",
      "transactionType": "CALL",
      "contractName": null,
      "contractAddress": "0x8f9ec8107c126e94f5c4df26350fb7354e0c8af9",
      "function": "transfer(address,uint256)",
      "arguments": [
        "0x524fCd94927C29fE5e2FF3C4363B2be3C0Fe3414",
        "100000000000000000000000"
      ],
      "transaction": {
        "from": "0xac380431ec7f6e7c8f43d52f286f638fc9311ca5",
        "to": "0x8f9ec8107c126e94f5c4df26350fb7354e0c8af9",
        "gas": "0x141dd",
        "value": "0x0",
        "input": "0xa9059cbb000000000000000000000000524fcd94927c29fe5e2ff3c4363b2be3c0fe341400000000000000000000000000000000000000000000152d02c7e14af6800000",
        "nonce": "0x17",
        "chainId": "0x38"
      },
      "additionalContracts": [],
      "isFixedGasLimit": false
    },
    {
      "hash": "0x5a868b46d7afea4117f0a2732ab26f2831464fe565bbcd1b0f7ba7e0e59e37ac",
      "transactionType": "CALL",
      "contractName": null,
      "contractAddress": "0x53e599211bf49aa2336c3f839ad57e20de3662a3",
      "function": "transfer(address,uint256)",
      "arguments": [
        "0x524fCd94927C29fE5e2FF3C4363B2be3C0Fe3414",
        "100000000000000000000000"
      ],
      "transaction": {
        "from": "0xac380431ec7f6e7c8f43d52f286f638fc9311ca5",
        "to": "0x53e599211bf49aa2336c3f839ad57e20de3662a3",
        "gas": "0x14f28",
        "value": "0x0",
        "input": "0xa9059cbb000000000000000000000000524fcd94927c29fe5e2ff3c4363b2be3c0fe341400000000000000000000000000000000000000000000152d02c7e14af6800000",
        "nonce": "0x18",
        "chainId": "0x38"
      },
      "additionalContracts": [],
      "isFixedGasLimit": false
    },
    {
      "hash": "0xa8ff7a66e55b65a84a8f0561f33601b9cc761af51898d035f2d8578275458b00",
      "transactionType": "CALL",
      "contractName": null,
      "contractAddress": "0x8f9ec8107c126e94f5c4df26350fb7354e0c8af9",
      "function": "transfer(address,uint256)",
      "arguments": [
        "0x91F72A1c738e67Dc7f23cF10C1B621d24250a7f5",
        "100000000000000000000000"
      ],
      "transaction": {
        "from": "0xac380431ec7f6e7c8f43d52f286f638fc9311ca5",
        "to": "0x8f9ec8107c126e94f5c4df26350fb7354e0c8af9",
        "gas": "0x141dd",
        "value": "0x0",
        "input": "0xa9059cbb00000000000000000000000091f72a1c738e67dc7f23cf10c1b621d24250a7f500000000000000000000000000000000000000000000152d02c7e14af6800000",
        "nonce": "0x19",
        "chainId": "0x38"
      },
      "additionalContracts": [],
      "isFixedGasLimit": false
    },
    {
      "hash": "0xb7f860e7d6c7f44f1170c36b38ff605cbb6f308f9a8a081b27211a548e1646bc",
      "transactionType": "CALL",
      "contractName": null,
      "contractAddress": "0x53e599211bf49aa2336c3f839ad57e20de3662a3",
      "function": "transfer(address,uint256)",
      "arguments": [
        "0x91F72A1c738e67Dc7f23cF10C1B621d24250a7f5",
        "100000000000000000000000"
      ],
      "transaction": {
        "from": "0xac380431ec7f6e7c8f43d52f286f638fc9311ca5",
        "to": "0x53e599211bf49aa2336c3f839ad57e20de3662a3",
        "gas": "0x14f28",
        "value": "0x0",
        "input": "0xa9059cbb00000000000000000000000091f72a1c738e67dc7f23cf10c1b621d24250a7f500000000000000000000000000000000000000000000152d02c7e14af6800000",
        "nonce": "0x1a",
        "chainId": "0x38"
      },
      "additionalContracts": [],
      "isFixedGasLimit": false
    },
    {
      "hash": "0x9bf6c4ba6a0f19071adab7bbfed87c5e7d85adc99b73c6caaf515cc6059b921f",
      "transactionType": "CALL",
      "contractName": null,
      "contractAddress": "0x8f9ec8107c126e94f5c4df26350fb7354e0c8af9",
      "function": "transfer(address,uint256)",
      "arguments": [
        "0x2039F74e93528c1e434D7890AB57ea0Ce94E042B",
        "10000000000000000000000"
      ],
      "transaction": {
        "from": "0xac380431ec7f6e7c8f43d52f286f638fc9311ca5",
        "to": "0x8f9ec8107c126e94f5c4df26350fb7354e0c8af9",
        "gas": "0x141dd",
        "value": "0x0",
        "input": "0xa9059cbb0000000000000000000000002039f74e93528c1e434d7890ab57ea0ce94e042b00000000000000000000000000000000000000000000021e19e0c9bab2400000",
        "nonce": "0x1b",
        "chainId": "0x38"
      },
      "additionalContracts": [],
      "isFixedGasLimit": false
    },
    {
      "hash": "0xc6373d031ee88ccf2546628062390285b6650633b8f4c38880424501710bc24a",
      "transactionType": "CALL",
      "contractName": null,
      "contractAddress": "0x53e599211bf49aa2336c3f839ad57e20de3662a3",
      "function": "transfer(address,uint256)",
      "arguments": [
        "0x2039F74e93528c1e434D7890AB57ea0Ce94E042B",
        "10000000000000000000000"
      ],
      "transaction": {
        "from": "0xac380431ec7f6e7c8f43d52f286f638fc9311ca5",
        "to": "0x53e599211bf49aa2336c3f839ad57e20de3662a3",
        "gas": "0x14f28",
        "value": "0x0",
        "input": "0xa9059cbb0000000000000000000000002039f74e93528c1e434d7890ab57ea0ce94e042b00000000000000000000000000000000000000000000021e19e0c9bab2400000",
        "nonce": "0x1c",
        "chainId": "0x38"
      },
      "additionalContracts": [],
      "isFixedGasLimit": false
    },
    {
      "hash": "0x10907504f3f081282a2f6e6e0b4ef9345e00eecc0f082b6d9a65235405e934ec",
      "transactionType": "CALL",
      "contractName": null,
      "contractAddress": "0x8f9ec8107c126e94f5c4df26350fb7354e0c8af9",
      "function": "transfer(address,uint256)",
      "arguments": [
        "0x01a00247Dd0425C2f5B494E3fD7Af9218Cf2C7a8",
        "10000000000000000000000"
      ],
      "transaction": {
        "from": "0xac380431ec7f6e7c8f43d52f286f638fc9311ca5",
        "to": "0x8f9ec8107c126e94f5c4df26350fb7354e0c8af9",
        "gas": "0x141dd",
        "value": "0x0",
        "input": "0xa9059cbb00000000000000000000000001a00247dd0425c2f5b494e3fd7af9218cf2c7a800000000000000000000000000000000000000000000021e19e0c9bab2400000",
        "nonce": "0x1d",
        "chainId": "0x38"
      },
      "additionalContracts": [],
      "isFixedGasLimit": false
    },
    {
      "hash": "0xc2711fafa642ce09983e4ce4f9b044312a31315d306da0c546620dabcd5f2d33",
      "transactionType": "CALL",
      "contractName": null,
      "contractAddress": "0x53e599211bf49aa2336c3f839ad57e20de3662a3",
      "function": "transfer(address,uint256)",
      "arguments": [
        "0x01a00247Dd0425C2f5B494E3fD7Af9218Cf2C7a8",
        "10000000000000000000000"
      ],
      "transaction": {
        "from": "0xac380431ec7f6e7c8f43d52f286f638fc9311ca5",
        "to": "0x53e599211bf49aa2336c3f839ad57e20de3662a3",
        "gas": "0x14f28",
        "value": "0x0",
        "input": "0xa9059cbb00000000000000000000000001a00247dd0425c2f5b494e3fd7af9218cf2c7a800000000000000000000000000000000000000000000021e19e0c9bab2400000",
        "nonce": "0x1e",
        "chainId": "0x38"
      },
      "additionalContracts": [],
      "isFixedGasLimit": false
    },
    {
      "hash": "0x54b83f094e576dffa627f74ac2210a8317d1bed8603f9202775a84762765db14",
      "transactionType": "CALL",
      "contractName": null,
      "contractAddress": "0x8f9ec8107c126e94f5c4df26350fb7354e0c8af9",
      "function": "transfer(address,uint256)",
      "arguments": [
        "0x4D491e033FCb832624CeD94bCA4567ceDf82202b",
        "10000000000000000000000"
      ],
      "transaction": {
        "from": "0xac380431ec7f6e7c8f43d52f286f638fc9311ca5",
        "to": "0x8f9ec8107c126e94f5c4df26350fb7354e0c8af9",
        "gas": "0x141dd",
        "value": "0x0",
        "input": "0xa9059cbb0000000000000000000000004d491e033fcb832624ced94bca4567cedf82202b00000000000000000000000000000000000000000000021e19e0c9bab2400000",
        "nonce": "0x1f",
        "chainId": "0x38"
      },
      "additionalContracts": [],
      "isFixedGasLimit": false
    },
    {
      "hash": "0x82fc4428682cdce00c679f5bd253c4328b12957ffc57537d6479013ee81c9ce2",
      "transactionType": "CALL",
      "contractName": null,
      "contractAddress": "0x53e599211bf49aa2336c3f839ad57e20de3662a3",
      "function": "transfer(address,uint256)",
      "arguments": [
        "0x4D491e033FCb832624CeD94bCA4567ceDf82202b",
        "10000000000000000000000"
      ],
      "transaction": {
        "from": "0xac380431ec7f6e7c8f43d52f286f638fc9311ca5",
        "to": "0x53e599211bf49aa2336c3f839ad57e20de3662a3",
        "gas": "0x14f28",
        "value": "0x0",
        "input": "0xa9059cbb0000000000000000000000004d491e033fcb832624ced94bca4567cedf82202b00000000000000000000000000000000000000000000021e19e0c9bab2400000",
        "nonce": "0x20",
        "chainId": "0x38"
      },
      "additionalContracts": [],
      "isFixedGasLimit": false
    },
    {
      "hash": "0xf9f55d47cebf9ce318d9a286914c0182c292c483d05e2b67ab9ee1719ba87d18",
      "transactionType": "CALL",
      "contractName": null,
      "contractAddress": "0x8f9ec8107c126e94f5c4df26350fb7354e0c8af9",
      "function": "transfer(address,uint256)",
      "arguments": [
        "0xa2B48c8b8dda001246c9F98815C3A851fde6A05E",
        "100000000000000000000000"
      ],
      "transaction": {
        "from": "0xac380431ec7f6e7c8f43d52f286f638fc9311ca5",
        "to": "0x8f9ec8107c126e94f5c4df26350fb7354e0c8af9",
        "gas": "0x154bb",
        "value": "0x0",
        "input": "0xa9059cbb000000000000000000000000a2b48c8b8dda001246c9f98815c3a851fde6a05e00000000000000000000000000000000000000000000152d02c7e14af6800000",
        "nonce": "0x21",
        "chainId": "0x38"
      },
      "additionalContracts": [],
      "isFixedGasLimit": false
    },
    {
      "hash": "0x23507ede5be3db7bedc300f53700f75fad697ee8eebfe7cc32e8741c9a0a8f1e",
      "transactionType": "CALL",
      "contractName": null,
      "contractAddress": "0x53e599211bf49aa2336c3f839ad57e20de3662a3",
      "function": "transfer(address,uint256)",
      "arguments": [
        "0xa2B48c8b8dda001246c9F98815C3A851fde6A05E",
        "100000000000000000000000"
      ],
      "transaction": {
        "from": "0xac380431ec7f6e7c8f43d52f286f638fc9311ca5",
        "to": "0x53e599211bf49aa2336c3f839ad57e20de3662a3",
        "gas": "0x13c78",
        "value": "0x0",
        "input": "0xa9059cbb000000000000000000000000a2b48c8b8dda001246c9f98815c3a851fde6a05e00000000000000000000000000000000000000000000152d02c7e14af6800000",
        "nonce": "0x22",
        "chainId": "0x38"
      },
      "additionalContracts": [],
      "isFixedGasLimit": false
    },
    {
      "hash": "0x625ce53341cd522e0279a413c285c4c5cf14ad3e4d08848fdb7db6e09f03fcb8",
      "transactionType": "CALL",
      "contractName": null,
      "contractAddress": "0x8f9ec8107c126e94f5c4df26350fb7354e0c8af9",
      "function": "transfer(address,uint256)",
      "arguments": [
        "0x1587932a6c2d90B7BeB4536b63d3F17B7C1B1E46",
        "100000000000000000000000"
      ],
      "transaction": {
        "from": "0xac380431ec7f6e7c8f43d52f286f638fc9311ca5",
        "to": "0x8f9ec8107c126e94f5c4df26350fb7354e0c8af9",
        "gas": "0x141dd",
        "value": "0x0",
        "input": "0xa9059cbb0000000000000000000000001587932a6c2d90b7beb4536b63d3f17b7c1b1e4600000000000000000000000000000000000000000000152d02c7e14af6800000",
        "nonce": "0x23",
        "chainId": "0x38"
      },
      "additionalContracts": [],
      "isFixedGasLimit": false
    },
    {
      "hash": "0x42daf71a464a6af0cbee47d0de7031fa0afb7f71a85a9fc78699f9ce55856a5c",
      "transactionType": "CALL",
      "contractName": null,
      "contractAddress": "0x53e599211bf49aa2336c3f839ad57e20de3662a3",
      "function": "transfer(address,uint256)",
      "arguments": [
        "0x1587932a6c2d90B7BeB4536b63d3F17B7C1B1E46",
        "100000000000000000000000"
      ],
      "transaction": {
        "from": "0xac380431ec7f6e7c8f43d52f286f638fc9311ca5",
        "to": "0x53e599211bf49aa2336c3f839ad57e20de3662a3",
        "gas": "0x14f28",
        "value": "0x0",
        "input": "0xa9059cbb0000000000000000000000001587932a6c2d90b7beb4536b63d3f17b7c1b1e4600000000000000000000000000000000000000000000152d02c7e14af6800000",
        "nonce": "0x24",
        "chainId": "0x38"
      },
      "additionalContracts": [],
      "isFixedGasLimit": false
    },
    {
      "hash": "0xcbc6216367e2e358710471191ccf367e339ea05c4ca9e6e8dd5e6812bf561161",
      "transactionType": "CALL",
      "contractName": null,
      "contractAddress": "0x8f9ec8107c126e94f5c4df26350fb7354e0c8af9",
      "function": "transfer(address,uint256)",
      "arguments": [
        "0x1cc443605C98d951BcF4122A9168d8002cE92980",
        "100000000000000000000000"
      ],
      "transaction": {
        "from": "0xac380431ec7f6e7c8f43d52f286f638fc9311ca5",
        "to": "0x8f9ec8107c126e94f5c4df26350fb7354e0c8af9",
        "gas": "0x154bb",
        "value": "0x0",
        "input": "0xa9059cbb0000000000000000000000001cc443605c98d951bcf4122a9168d8002ce9298000000000000000000000000000000000000000000000152d02c7e14af6800000",
        "nonce": "0x25",
        "chainId": "0x38"
      },
      "additionalContracts": [],
      "isFixedGasLimit": false
    },
    {
      "hash": "0x9b44a20d2f290dacd41282301142fc0cb5609d411b7bb4b8a8f0da3475c07d06",
      "transactionType": "CALL",
      "contractName": null,
      "contractAddress": "0x53e599211bf49aa2336c3f839ad57e20de3662a3",
      "function": "transfer(address,uint256)",
      "arguments": [
        "0x1cc443605C98d951BcF4122A9168d8002cE92980",
        "100000000000000000000000"
      ],
      "transaction": {
        "from": "0xac380431ec7f6e7c8f43d52f286f638fc9311ca5",
        "to": "0x53e599211bf49aa2336c3f839ad57e20de3662a3",
        "gas": "0x13c78",
        "value": "0x0",
        "input": "0xa9059cbb0000000000000000000000001cc443605c98d951bcf4122a9168d8002ce9298000000000000000000000000000000000000000000000152d02c7e14af6800000",
        "nonce": "0x26",
        "chainId": "0x38"
      },
      "additionalContracts": [],
      "isFixedGasLimit": false
    },
    {
      "hash": "0xf37d4aef6047553a2eb0a2bb3fcc0ad128d2aa2101fb6eb3558911e189158c9f",
      "transactionType": "CALL",
      "contractName": null,
      "contractAddress": "0x8f9ec8107c126e94f5c4df26350fb7354e0c8af9",
      "function": "transfer(address,uint256)",
      "arguments": [
        "0x77165B07a6a5392b28f2d2905b44453AaEBf8026",
        "100000000000000000000000"
      ],
      "transaction": {
        "from": "0xac380431ec7f6e7c8f43d52f286f638fc9311ca5",
        "to": "0x8f9ec8107c126e94f5c4df26350fb7354e0c8af9",
        "gas": "0x141dd",
        "value": "0x0",
        "input": "0xa9059cbb00000000000000000000000077165b07a6a5392b28f2d2905b44453aaebf802600000000000000000000000000000000000000000000152d02c7e14af6800000",
        "nonce": "0x27",
        "chainId": "0x38"
      },
      "additionalContracts": [],
      "isFixedGasLimit": false
    },
    {
      "hash": "0xcf460a13e5e58c1b8b980dcd552ff3f0de53a551c6a46fe03a22eaaf718b1b51",
      "transactionType": "CALL",
      "contractName": null,
      "contractAddress": "0x53e599211bf49aa2336c3f839ad57e20de3662a3",
      "function": "transfer(address,uint256)",
      "arguments": [
        "0x77165B07a6a5392b28f2d2905b44453AaEBf8026",
        "100000000000000000000000"
      ],
      "transaction": {
        "from": "0xac380431ec7f6e7c8f43d52f286f638fc9311ca5",
        "to": "0x53e599211bf49aa2336c3f839ad57e20de3662a3",
        "gas": "0x14f28",
        "value": "0x0",
        "input": "0xa9059cbb00000000000000000000000077165b07a6a5392b28f2d2905b44453aaebf802600000000000000000000000000000000000000000000152d02c7e14af6800000",
        "nonce": "0x28",
        "chainId": "0x38"
      },
      "additionalContracts": [],
      "isFixedGasLimit": false
    },
    {
      "hash": "0x6f25dc4e90f2defaafbe8fe08cbef03b5d28167917a1e846dbf73edb634ea812",
      "transactionType": "CALL",
      "contractName": null,
      "contractAddress": "0x53e599211bf49aa2336c3f839ad57e20de3662a3",
      "function": "transfer(address,uint256)",
      "arguments": [
        "0xA61Ce04E01943145626eFdae37E72570Ab5994e3",
        "20000000000000000000000000"
      ],
      "transaction": {
        "from": "0xac380431ec7f6e7c8f43d52f286f638fc9311ca5",
        "to": "0x53e599211bf49aa2336c3f839ad57e20de3662a3",
        "gas": "0x14f28",
        "value": "0x0",
        "input": "0xa9059cbb000000000000000000000000a61ce04e01943145626efdae37e72570ab5994e3000000000000000000000000000000000000000000108b2a2c28029094000000",
        "nonce": "0x29",
        "chainId": "0x38"
      },
      "additionalContracts": [],
      "isFixedGasLimit": false
    },
    {
      "hash": "0x485e43e7bb5fa0d9bb63db5cd15d7ceed86f69e9aa6f18a3f213cd869d5ae136",
      "transactionType": "CALL",
      "contractName": null,
      "contractAddress": "0x8f9ec8107c126e94f5c4df26350fb7354e0c8af9",
      "function": "transfer(address,uint256)",
      "arguments": [
        "0x6A75DCDf3abf38C886f656d22E14d9a972dFCa60",
        "100000000000000000000000"
      ],
      "transaction": {
        "from": "0xac380431ec7f6e7c8f43d52f286f638fc9311ca5",
        "to": "0x8f9ec8107c126e94f5c4df26350fb7354e0c8af9",
        "gas": "0x141dd",
        "value": "0x0",
        "input": "0xa9059cbb0000000000000000000000006a75dcdf3abf38c886f656d22e14d9a972dfca6000000000000000000000000000000000000000000000152d02c7e14af6800000",
        "nonce": "0x2a",
        "chainId": "0x38"
      },
      "additionalContracts": [],
      "isFixedGasLimit": false
    },
    {
      "hash": "0x661be37d236d683574c8b716d99d403b9baa5f0463be5d07827064f2919c0bc7",
      "transactionType": "CALL",
      "contractName": null,
      "contractAddress": "0x53e599211bf49aa2336c3f839ad57e20de3662a3",
      "function": "transfer(address,uint256)",
      "arguments": [
        "0x6A75DCDf3abf38C886f656d22E14d9a972dFCa60",
        "200000000000000000000000"
      ],
      "transaction": {
        "from": "0xac380431ec7f6e7c8f43d52f286f638fc9311ca5",
        "to": "0x53e599211bf49aa2336c3f839ad57e20de3662a3",
        "gas": "0x13c78",
        "value": "0x0",
        "input": "0xa9059cbb0000000000000000000000006a75dcdf3abf38c886f656d22e14d9a972dfca60000000000000000000000000000000000000000000002a5a058fc295ed000000",
        "nonce": "0x2b",
        "chainId": "0x38"
      },
      "additionalContracts": [],
      "isFixedGasLimit": false
    },
    {
      "hash": "0xf2df652953530a414e0b1cfb4ccd0b67e0d59189db8591294167b82a2a7765df",
      "transactionType": "CALL",
      "contractName": null,
      "contractAddress": "0x53e599211bf49aa2336c3f839ad57e20de3662a3",
      "function": "transfer(address,uint256)",
      "arguments": [
        "0x199B5FCc49092De043397866b11008f4Cb60cE3a",
        "300000000000000000000000"
      ],
      "transaction": {
        "from": "0xac380431ec7f6e7c8f43d52f286f638fc9311ca5",
        "to": "0x53e599211bf49aa2336c3f839ad57e20de3662a3",
        "gas": "0x14f28",
        "value": "0x0",
        "input": "0xa9059cbb000000000000000000000000199b5fcc49092de043397866b11008f4cb60ce3a000000000000000000000000000000000000000000003f870857a3e0e3800000",
        "nonce": "0x2c",
        "chainId": "0x38"
      },
      "additionalContracts": [],
      "isFixedGasLimit": false
    }
  ],
  "receipts": [
    {
      "status": "0x1",
      "cumulativeGasUsed": "0x60ed9b",
      "logs": [
        {
          "address": "0x8f9ec8107c126e94f5c4df26350fb7354e0c8af9",
          "topics": [
            "0xddf252ad1be2c89b69c2b068fc378daa952ba7f163c4a11628f55a4df523b3ef",
            "0x000000000000000000000000ac380431ec7f6e7c8f43d52f286f638fc9311ca5",
            "0x000000000000000000000000524fcd94927c29fe5e2ff3c4363b2be3c0fe3414"
          ],
          "data": "0x00000000000000000000000000000000000000000000152d02c7e14af6800000",
          "blockHash": "0x17f0f6c4e2d4024526c2616bbacc52871114d9c31435f46271f06c60fb5123b8",
          "blockNumber": "0x51b7ad4",
          "blockTimestamp": "0x69af709f",
          "transactionHash": "0x9bf6c4ba6a0f19071adab7bbfed87c5e7d85adc99b73c6caaf515cc6059b921f",
          "transactionIndex": "0x21",
          "logIndex": "0xca",
          "removed": false
        }
      ],
      "logsBloom": "0x00000000000000000000000000000000000000000000001000000000000000000000000000000000000000000000000000000000000000000000000000000000000400000000000000010008000000000000000001000000000000000000000000000000000000000000000000000000000000000000000000000010000000000000000000020000000000000000000000000000000000000000080000000000000000000000000000000000000000000000000000000000000000000000000000000002000000004000000000000000000000000000000000000000000000000800000000000000000000000000000000004000000000000000000000000000",
      "type": "0x2",
      "transactionHash": "0x9bf6c4ba6a0f19071adab7bbfed87c5e7d85adc99b73c6caaf515cc6059b921f",
      "transactionIndex": "0x21",
      "blockHash": "0x17f0f6c4e2d4024526c2616bbacc52871114d9c31435f46271f06c60fb5123b8",
      "blockNumber": "0x51b7ad4",
      "gasUsed": "0xe907",
      "effectiveGasPrice": "0x2faf080",
      "from": "0xac380431ec7f6e7c8f43d52f286f638fc9311ca5",
      "to": "0x8f9ec8107c126e94f5c4df26350fb7354e0c8af9",
      "contractAddress": null
    },
    {
      "status": "0x1",
      "cumulativeGasUsed": "0x61d2c6",
      "logs": [
        {
          "address": "0x53e599211bf49aa2336c3f839ad57e20de3662a3",
          "topics": [
            "0xddf252ad1be2c89b69c2b068fc378daa952ba7f163c4a11628f55a4df523b3ef",
            "0x000000000000000000000000ac380431ec7f6e7c8f43d52f286f638fc9311ca5",
            "0x000000000000000000000000524fcd94927c29fe5e2ff3c4363b2be3c0fe3414"
          ],
          "data": "0x00000000000000000000000000000000000000000000152d02c7e14af6800000",
          "blockHash": "0x17f0f6c4e2d4024526c2616bbacc52871114d9c31435f46271f06c60fb5123b8",
          "blockNumber": "0x51b7ad4",
          "blockTimestamp": "0x69af709f",
          "transactionHash": "0x8a815fbcb7d74650aa4f9ee67312e3012634f89fde8e4eaf8494394b7c0927ae",
          "transactionIndex": "0x22",
          "logIndex": "0xcb",
          "removed": false
        }
      ],
      "logsBloom": "0x00000000000000000000000000000000000000000000001200000000000000000000000000000000000000000000000000000000000000000000000000000000000400000000000000010008000000000000000001000000000000000000000000000000000000000000000000000000000000000000000000000010000000000000000000000000000000000000000000000000000000000000080002000000000000000000000000000000000000000000000000000000000000000000000000000002000000004000000000000000000000000000008000000000000000000000000000000000000000000000000000000000000000000000000000000000",
      "type": "0x2",
      "transactionHash": "0x8a815fbcb7d74650aa4f9ee67312e3012634f89fde8e4eaf8494394b7c0927ae",
      "transactionIndex": "0x22",
      "blockHash": "0x17f0f6c4e2d4024526c2616bbacc52871114d9c31435f46271f06c60fb5123b8",
      "blockNumber": "0x51b7ad4",
      "gasUsed": "0xe52b",
      "effectiveGasPrice": "0x2faf080",
      "from": "0xac380431ec7f6e7c8f43d52f286f638fc9311ca5",
      "to": "0x53e599211bf49aa2336c3f839ad57e20de3662a3",
      "contractAddress": null
    },
    {
      "status": "0x1",
      "cumulativeGasUsed": "0x62bbcd",
      "logs": [
        {
          "address": "0x8f9ec8107c126e94f5c4df26350fb7354e0c8af9",
          "topics": [
            "0xddf252ad1be2c89b69c2b068fc378daa952ba7f163c4a11628f55a4df523b3ef",
            "0x000000000000000000000000ac380431ec7f6e7c8f43d52f286f638fc9311ca5",
            "0x00000000000000000000000091f72a1c738e67dc7f23cf10c1b621d24250a7f5"
          ],
          "data": "0x00000000000000000000000000000000000000000000152d02c7e14af6800000",
          "blockHash": "0x17f0f6c4e2d4024526c2616bbacc52871114d9c31435f46271f06c60fb5123b8",
          "blockNumber": "0x51b7ad4",
          "blockTimestamp": "0x69af709f",
          "transactionHash": "0xc6373d031ee88ccf2546628062390285b6650633b8f4c38880424501710bc24a",
          "transactionIndex": "0x23",
          "logIndex": "0xcc",
          "removed": false
        }
      ],
      "logsBloom": "0x00000000000000000000000000000000000000080000000000000000000000000000000000000000000000000000000000000020000000000000000000000000000400000000000000000008000000000000000001000000000000000000000000000000000000000000000000000000000000000000000000000010000000000000000000020000000000000000000000000000000000000000080000000000000000000000000000000000400000000000000000000000000000000000000000000002000000000000000000000000000000000000000000000000000000000800000000000000000000000000000000004000000000000000000000000000",
      "type": "0x2",
      "transactionHash": "0xc6373d031ee88ccf2546628062390285b6650633b8f4c38880424501710bc24a",
      "transactionIndex": "0x23",
      "blockHash": "0x17f0f6c4e2d4024526c2616bbacc52871114d9c31435f46271f06c60fb5123b8",
      "blockNumber": "0x51b7ad4",
      "gasUsed": "0xe907",
      "effectiveGasPrice": "0x2faf080",
      "from": "0xac380431ec7f6e7c8f43d52f286f638fc9311ca5",
      "to": "0x8f9ec8107c126e94f5c4df26350fb7354e0c8af9",
      "contractAddress": null
    },
    {
      "status": "0x1",
      "cumulativeGasUsed": "0x63a0f8",
      "logs": [
        {
          "address": "0x53e599211bf49aa2336c3f839ad57e20de3662a3",
          "topics": [
            "0xddf252ad1be2c89b69c2b068fc378daa952ba7f163c4a11628f55a4df523b3ef",
            "0x000000000000000000000000ac380431ec7f6e7c8f43d52f286f638fc9311ca5",
            "0x00000000000000000000000091f72a1c738e67dc7f23cf10c1b621d24250a7f5"
          ],
          "data": "0x00000000000000000000000000000000000000000000152d02c7e14af6800000",
          "blockHash": "0x17f0f6c4e2d4024526c2616bbacc52871114d9c31435f46271f06c60fb5123b8",
          "blockNumber": "0x51b7ad4",
          "blockTimestamp": "0x69af709f",
          "transactionHash": "0x10907504f3f081282a2f6e6e0b4ef9345e00eecc0f082b6d9a65235405e934ec",
          "transactionIndex": "0x24",
          "logIndex": "0xcd",
          "removed": false
        }
      ],
      "logsBloom": "0x00000000000000000000000000000000000000080000000200000000000000000000000000000000000000000000000000000020000000000000000000000000000400000000000000000008000000000000000001000000000000000000000000000000000000000000000000000000000000000000000000000010000000000000000000000000000000000000000000000000000000000000080002000000000000000000000000000000400000000000000000000000000000000000000000000002000000000000000000000000000000000000008000000000000000000000000000000000000000000000000000000000000000000000000000000000",
      "type": "0x2",
      "transactionHash": "0x10907504f3f081282a2f6e6e0b4ef9345e00eecc0f082b6d9a65235405e934ec",
      "transactionIndex": "0x24",
      "blockHash": "0x17f0f6c4e2d4024526c2616bbacc52871114d9c31435f46271f06c60fb5123b8",
      "blockNumber": "0x51b7ad4",
      "gasUsed": "0xe52b",
      "effectiveGasPrice": "0x2faf080",
      "from": "0xac380431ec7f6e7c8f43d52f286f638fc9311ca5",
      "to": "0x53e599211bf49aa2336c3f839ad57e20de3662a3",
      "contractAddress": null
    },
    {
      "status": "0x1",
      "cumulativeGasUsed": "0x6489ff",
      "logs": [
        {
          "address": "0x8f9ec8107c126e94f5c4df26350fb7354e0c8af9",
          "topics": [
            "0xddf252ad1be2c89b69c2b068fc378daa952ba7f163c4a11628f55a4df523b3ef",
            "0x000000000000000000000000ac380431ec7f6e7c8f43d52f286f638fc9311ca5",
            "0x0000000000000000000000002039f74e93528c1e434d7890ab57ea0ce94e042b"
          ],
          "data": "0x00000000000000000000000000000000000000000000021e19e0c9bab2400000",
          "blockHash": "0x17f0f6c4e2d4024526c2616bbacc52871114d9c31435f46271f06c60fb5123b8",
          "blockNumber": "0x51b7ad4",
          "blockTimestamp": "0x69af709f",
          "transactionHash": "0x82fc4428682cdce00c679f5bd253c4328b12957ffc57537d6479013ee81c9ce2",
          "transactionIndex": "0x25",
          "logIndex": "0xce",
          "removed": false
        }
      ],
      "logsBloom": "0x00000000000000000000000000000000000000000000000000400000000000000000000000000000000000000000000000000000000000000000000000000000000400000000000000000008000000000000000001000000000000000000000000000000000000000000000000000000000000000000000000000010000000000000000000020000000000000000004000000000000000000000080000000000000000000000000000000000000000000000000000000000000000000000000000000002000020000000000000000000000000000000000000000000000000000800000000000000000000000000000000004000000000000000000000000000",
      "type": "0x2",
      "transactionHash": "0x82fc4428682cdce00c679f5bd253c4328b12957ffc57537d6479013ee81c9ce2",
      "transactionIndex": "0x25",
      "blockHash": "0x17f0f6c4e2d4024526c2616bbacc52871114d9c31435f46271f06c60fb5123b8",
      "blockNumber": "0x51b7ad4",
      "gasUsed": "0xe907",
      "effectiveGasPrice": "0x2faf080",
      "from": "0xac380431ec7f6e7c8f43d52f286f638fc9311ca5",
      "to": "0x8f9ec8107c126e94f5c4df26350fb7354e0c8af9",
      "contractAddress": null
    },
    {
      "status": "0x1",
      "cumulativeGasUsed": "0x656f2a",
      "logs": [
        {
          "address": "0x53e599211bf49aa2336c3f839ad57e20de3662a3",
          "topics": [
            "0xddf252ad1be2c89b69c2b068fc378daa952ba7f163c4a11628f55a4df523b3ef",
            "0x000000000000000000000000ac380431ec7f6e7c8f43d52f286f638fc9311ca5",
            "0x0000000000000000000000002039f74e93528c1e434d7890ab57ea0ce94e042b"
          ],
          "data": "0x00000000000000000000000000000000000000000000021e19e0c9bab2400000",
          "blockHash": "0x17f0f6c4e2d4024526c2616bbacc52871114d9c31435f46271f06c60fb5123b8",
          "blockNumber": "0x51b7ad4",
          "blockTimestamp": "0x69af709f",
          "transactionHash": "0xb7f860e7d6c7f44f1170c36b38ff605cbb6f308f9a8a081b27211a548e1646bc",
          "transactionIndex": "0x26",
          "logIndex": "0xcf",
          "removed": false
        }
      ],
      "logsBloom": "0x00000000000000000000000000000000000000000000000200400000000000000000000000000000000000000000000000000000000000000000000000000000000400000000000000000008000000000000000001000000000000000000000000000000000000000000000000000000000000000000000000000010000000000000000000000000000000000000004000000000000000000000080002000000000000000000000000000000000000000000000000000000000000000000000000000002000020000000000000000000000000000000008000000000000000000000000000000000000000000000000000000000000000000000000000000000",
      "type": "0x2",
      "transactionHash": "0xb7f860e7d6c7f44f1170c36b38ff605cbb6f308f9a8a081b27211a548e1646bc",
      "transactionIndex": "0x26",
      "blockHash": "0x17f0f6c4e2d4024526c2616bbacc52871114d9c31435f46271f06c60fb5123b8",
      "blockNumber": "0x51b7ad4",
      "gasUsed": "0xe52b",
      "effectiveGasPrice": "0x2faf080",
      "from": "0xac380431ec7f6e7c8f43d52f286f638fc9311ca5",
      "to": "0x53e599211bf49aa2336c3f839ad57e20de3662a3",
      "contractAddress": null
    },
    {
      "status": "0x1",
      "cumulativeGasUsed": "0x665831",
      "logs": [
        {
          "address": "0x8f9ec8107c126e94f5c4df26350fb7354e0c8af9",
          "topics": [
            "0xddf252ad1be2c89b69c2b068fc378daa952ba7f163c4a11628f55a4df523b3ef",
            "0x000000000000000000000000ac380431ec7f6e7c8f43d52f286f638fc9311ca5",
            "0x00000000000000000000000001a00247dd0425c2f5b494e3fd7af9218cf2c7a8"
          ],
          "data": "0x00000000000000000000000000000000000000000000021e19e0c9bab2400000",
          "blockHash": "0x17f0f6c4e2d4024526c2616bbacc52871114d9c31435f46271f06c60fb5123b8",
          "blockNumber": "0x51b7ad4",
          "blockTimestamp": "0x69af709f",
          "transactionHash": "0xa8ff7a66e55b65a84a8f0561f33601b9cc761af51898d035f2d8578275458b00",
          "transactionIndex": "0x27",
          "logIndex": "0xd0",
          "removed": false
        }
      ],
      "logsBloom": "0x00000000000000000000000000000000000000000000000000000000000000000000000000000000000000000000000000000000000000000000000000000000000400000000000000000008000000000000000001000000000400000000000000000000000000000000000000000000000000000000000000000010000000000000000000020000000000000000000000000000000000000000080000000000000000000000000000000000000000000000000000000000000000000000000000000002000000000000002000000000000000000000000000000000000000000800000000000000000000000000000000004004000000000000000000000000",
      "type": "0x2",
      "transactionHash": "0xa8ff7a66e55b65a84a8f0561f33601b9cc761af51898d035f2d8578275458b00",
      "transactionIndex": "0x27",
      "blockHash": "0x17f0f6c4e2d4024526c2616bbacc52871114d9c31435f46271f06c60fb5123b8",
      "blockNumber": "0x51b7ad4",
      "gasUsed": "0xe907",
      "effectiveGasPrice": "0x2faf080",
      "from": "0xac380431ec7f6e7c8f43d52f286f638fc9311ca5",
      "to": "0x8f9ec8107c126e94f5c4df26350fb7354e0c8af9",
      "contractAddress": null
    },
    {
      "status": "0x1",
      "cumulativeGasUsed": "0x673d5c",
      "logs": [
        {
          "address": "0x53e599211bf49aa2336c3f839ad57e20de3662a3",
          "topics": [
            "0xddf252ad1be2c89b69c2b068fc378daa952ba7f163c4a11628f55a4df523b3ef",
            "0x000000000000000000000000ac380431ec7f6e7c8f43d52f286f638fc9311ca5",
            "0x00000000000000000000000001a00247dd0425c2f5b494e3fd7af9218cf2c7a8"
          ],
          "data": "0x00000000000000000000000000000000000000000000021e19e0c9bab2400000",
          "blockHash": "0x17f0f6c4e2d4024526c2616bbacc52871114d9c31435f46271f06c60fb5123b8",
          "blockNumber": "0x51b7ad4",
          "blockTimestamp": "0x69af709f",
          "transactionHash": "0x5a868b46d7afea4117f0a2732ab26f2831464fe565bbcd1b0f7ba7e0e59e37ac",
          "transactionIndex": "0x28",
          "logIndex": "0xd1",
          "removed": false
        }
      ],
      "logsBloom": "0x00000000000000000000000000000000000000000000000200000000000000000000000000000000000000000000000000000000000000000000000000000000000400000000000000000008000000000000000001000000000400000000000000000000000000000000000000000000000000000000000000000010000000000000000000000000000000000000000000000000000000000000080002000000000000000000000000000000000000000000000000000000000000000000000000000002000000000000002000000000000000000000008000000000000000000000000000000000000000000000000000000004000000000000000000000000",
      "type": "0x2",
      "transactionHash": "0x5a868b46d7afea4117f0a2732ab26f2831464fe565bbcd1b0f7ba7e0e59e37ac",
      "transactionIndex": "0x28",
      "blockHash": "0x17f0f6c4e2d4024526c2616bbacc52871114d9c31435f46271f06c60fb5123b8",
      "blockNumber": "0x51b7ad4",
      "gasUsed": "0xe52b",
      "effectiveGasPrice": "0x2faf080",
      "from": "0xac380431ec7f6e7c8f43d52f286f638fc9311ca5",
      "to": "0x53e599211bf49aa2336c3f839ad57e20de3662a3",
      "contractAddress": null
    },
    {
      "status": "0x1",
      "cumulativeGasUsed": "0x6e73e5",
      "logs": [
        {
          "address": "0x8f9ec8107c126e94f5c4df26350fb7354e0c8af9",
          "topics": [
            "0xddf252ad1be2c89b69c2b068fc378daa952ba7f163c4a11628f55a4df523b3ef",
            "0x000000000000000000000000ac380431ec7f6e7c8f43d52f286f638fc9311ca5",
            "0x0000000000000000000000004d491e033fcb832624ced94bca4567cedf82202b"
          ],
          "data": "0x00000000000000000000000000000000000000000000021e19e0c9bab2400000",
          "blockHash": "0x17f0f6c4e2d4024526c2616bbacc52871114d9c31435f46271f06c60fb5123b8",
          "blockNumber": "0x51b7ad4",
          "blockTimestamp": "0x69af709f",
          "transactionHash": "0x485e43e7bb5fa0d9bb63db5cd15d7ceed86f69e9aa6f18a3f213cd869d5ae136",
          "transactionIndex": "0x2c",
          "logIndex": "0xea",
          "removed": false
        }
      ],
      "logsBloom": "0x00000000000000000000000000000000000000000000000000000000000000000000000000000000000000000000000000000040000000000000020000000000000600000000000000000008000000000000000001000000000000000000000000000000000000000000000000000000000000000000000000000010000000000000000000020000000000000000000000000000000000000000080000000000000000000000000000000000000000000000000000000000000000000000000000000002000000000000000000000000000000000000000000000000000000000800000000000000000000000000000000004000000000000000000000000000",
      "type": "0x2",
      "transactionHash": "0x485e43e7bb5fa0d9bb63db5cd15d7ceed86f69e9aa6f18a3f213cd869d5ae136",
      "transactionIndex": "0x2c",
      "blockHash": "0x17f0f6c4e2d4024526c2616bbacc52871114d9c31435f46271f06c60fb5123b8",
      "blockNumber": "0x51b7ad4",
      "gasUsed": "0xe907",
      "effectiveGasPrice": "0x2faf080",
      "from": "0xac380431ec7f6e7c8f43d52f286f638fc9311ca5",
      "to": "0x8f9ec8107c126e94f5c4df26350fb7354e0c8af9",
      "contractAddress": null
    },
    {
      "status": "0x1",
      "cumulativeGasUsed": "0x6f5910",
      "logs": [
        {
          "address": "0x53e599211bf49aa2336c3f839ad57e20de3662a3",
          "topics": [
            "0xddf252ad1be2c89b69c2b068fc378daa952ba7f163c4a11628f55a4df523b3ef",
            "0x000000000000000000000000ac380431ec7f6e7c8f43d52f286f638fc9311ca5",
            "0x0000000000000000000000004d491e033fcb832624ced94bca4567cedf82202b"
          ],
          "data": "0x00000000000000000000000000000000000000000000021e19e0c9bab2400000",
          "blockHash": "0x17f0f6c4e2d4024526c2616bbacc52871114d9c31435f46271f06c60fb5123b8",
          "blockNumber": "0x51b7ad4",
          "blockTimestamp": "0x69af709f",
          "transactionHash": "0xcf460a13e5e58c1b8b980dcd552ff3f0de53a551c6a46fe03a22eaaf718b1b51",
          "transactionIndex": "0x2d",
          "logIndex": "0xeb",
          "removed": false
        }
      ],
      "logsBloom": "0x00000000000000000000000000000000000000000000000200000000000000000000000000000000000000000000000000000040000000000000020000000000000600000000000000000008000000000000000001000000000000000000000000000000000000000000000000000000000000000000000000000010000000000000000000000000000000000000000000000000000000000000080002000000000000000000000000000000000000000000000000000000000000000000000000000002000000000000000000000000000000000000008000000000000000000000000000000000000000000000000000000000000000000000000000000000",
      "type": "0x2",
      "transactionHash": "0xcf460a13e5e58c1b8b980dcd552ff3f0de53a551c6a46fe03a22eaaf718b1b51",
      "transactionIndex": "0x2d",
      "blockHash": "0x17f0f6c4e2d4024526c2616bbacc52871114d9c31435f46271f06c60fb5123b8",
      "blockNumber": "0x51b7ad4",
      "gasUsed": "0xe52b",
      "effectiveGasPrice": "0x2faf080",
      "from": "0xac380431ec7f6e7c8f43d52f286f638fc9311ca5",
      "to": "0x53e599211bf49aa2336c3f839ad57e20de3662a3",
      "contractAddress": null
    },
    {
      "status": "0x1",
      "cumulativeGasUsed": "0x70420b",
      "logs": [
        {
          "address": "0x8f9ec8107c126e94f5c4df26350fb7354e0c8af9",
          "topics": [
            "0xddf252ad1be2c89b69c2b068fc378daa952ba7f163c4a11628f55a4df523b3ef",
            "0x000000000000000000000000ac380431ec7f6e7c8f43d52f286f638fc9311ca5",
            "0x000000000000000000000000a2b48c8b8dda001246c9f98815c3a851fde6a05e"
          ],
          "data": "0x00000000000000000000000000000000000000000000152d02c7e14af6800000",
          "blockHash": "0x17f0f6c4e2d4024526c2616bbacc52871114d9c31435f46271f06c60fb5123b8",
          "blockNumber": "0x51b7ad4",
          "blockTimestamp": "0x69af709f",
          "transactionHash": "0x6f25dc4e90f2defaafbe8fe08cbef03b5d28167917a1e846dbf73edb634ea812",
          "transactionIndex": "0x2e",
          "logIndex": "0xec",
          "removed": false
        }
      ],
      "logsBloom": "0x00000000000000000000000000000000000000000000000000000000000000100000000000000000000000000000000000000000000000000000000000000000000400000000000000000008000000000000000001000000000000000000000000000000000000000000000000000000000000000000400000000010000000000000000000020000000000000000000000000000000000000000080000000000000000000000000000000000000000000000000000000000000000000000000000000002000000000000000000000000000000000000000000000000000000000800000000000000000000000000000000004000000000000200000000000000",
      "type": "0x2",
      "transactionHash": "0x6f25dc4e90f2defaafbe8fe08cbef03b5d28167917a1e846dbf73edb634ea812",
      "transactionIndex": "0x2e",
      "blockHash": "0x17f0f6c4e2d4024526c2616bbacc52871114d9c31435f46271f06c60fb5123b8",
      "blockNumber": "0x51b7ad4",
      "gasUsed": "0xe8fb",
      "effectiveGasPrice": "0x2faf080",
      "from": "0xac380431ec7f6e7c8f43d52f286f638fc9311ca5",
      "to": "0x8f9ec8107c126e94f5c4df26350fb7354e0c8af9",
      "contractAddress": null
    },
    {
      "status": "0x1",
      "cumulativeGasUsed": "0x71272a",
      "logs": [
        {
          "address": "0x53e599211bf49aa2336c3f839ad57e20de3662a3",
          "topics": [
            "0xddf252ad1be2c89b69c2b068fc378daa952ba7f163c4a11628f55a4df523b3ef",
            "0x000000000000000000000000ac380431ec7f6e7c8f43d52f286f638fc9311ca5",
            "0x000000000000000000000000a2b48c8b8dda001246c9f98815c3a851fde6a05e"
          ],
          "data": "0x00000000000000000000000000000000000000000000152d02c7e14af6800000",
          "blockHash": "0x17f0f6c4e2d4024526c2616bbacc52871114d9c31435f46271f06c60fb5123b8",
          "blockNumber": "0x51b7ad4",
          "blockTimestamp": "0x69af709f",
          "transactionHash": "0xf37d4aef6047553a2eb0a2bb3fcc0ad128d2aa2101fb6eb3558911e189158c9f",
          "transactionIndex": "0x2f",
          "logIndex": "0xed",
          "removed": false
        }
      ],
      "logsBloom": "0x00000000000000000000000000000000000000000000000200000000000000100000000000000000000000000000000000000000000000000000000000000000000400000000000000000008000000000000000001000000000000000000000000000000000000000000000000000000000000000000400000000010000000000000000000000000000000000000000000000000000000000000080002000000000000000000000000000000000000000000000000000000000000000000000000000002000000000000000000000000000000000000008000000000000000000000000000000000000000000000000000000000000000000200000000000000",
      "type": "0x2",
      "transactionHash": "0xf37d4aef6047553a2eb0a2bb3fcc0ad128d2aa2101fb6eb3558911e189158c9f",
      "transactionIndex": "0x2f",
      "blockHash": "0x17f0f6c4e2d4024526c2616bbacc52871114d9c31435f46271f06c60fb5123b8",
      "blockNumber": "0x51b7ad4",
      "gasUsed": "0xe51f",
      "effectiveGasPrice": "0x2faf080",
      "from": "0xac380431ec7f6e7c8f43d52f286f638fc9311ca5",
      "to": "0x53e599211bf49aa2336c3f839ad57e20de3662a3",
      "contractAddress": null
    },
    {
      "status": "0x1",
      "cumulativeGasUsed": "0x721031",
      "logs": [
        {
          "address": "0x8f9ec8107c126e94f5c4df26350fb7354e0c8af9",
          "topics": [
            "0xddf252ad1be2c89b69c2b068fc378daa952ba7f163c4a11628f55a4df523b3ef",
            "0x000000000000000000000000ac380431ec7f6e7c8f43d52f286f638fc9311ca5",
            "0x0000000000000000000000001587932a6c2d90b7beb4536b63d3f17b7c1b1e46"
          ],
          "data": "0x00000000000000000000000000000000000000000000152d02c7e14af6800000",
          "blockHash": "0x17f0f6c4e2d4024526c2616bbacc52871114d9c31435f46271f06c60fb5123b8",
          "blockNumber": "0x51b7ad4",
          "blockTimestamp": "0x69af709f",
          "transactionHash": "0x661be37d236d683574c8b716d99d403b9baa5f0463be5d07827064f2919c0bc7",
          "transactionIndex": "0x30",
          "logIndex": "0xee",
          "removed": false
        }
      ],
      "logsBloom": "0x00000000000000000000000000000000000000000000000000000000000000000000000000000000000000000000000000000000000000000000000000000000000400000000000000000008000000000000000001000004000000000000000000000000000000004000000000000000000000000000000000000010000000000000000000020000000000000000000000000000000000000000080000000000000000000000000000000000000000000000000000000000000000000000000000000002000000000000000000000000000000000000000000000000000000000800000000000000000000000000000000004000000000000000000004000000",
      "type": "0x2",
      "transactionHash": "0x661be37d236d683574c8b716d99d403b9baa5f0463be5d07827064f2919c0bc7",
      "transactionIndex": "0x30",
      "blockHash": "0x17f0f6c4e2d4024526c2616bbacc52871114d9c31435f46271f06c60fb5123b8",
      "blockNumber": "0x51b7ad4",
      "gasUsed": "0xe907",
      "effectiveGasPrice": "0x2faf080",
      "from": "0xac380431ec7f6e7c8f43d52f286f638fc9311ca5",
      "to": "0x8f9ec8107c126e94f5c4df26350fb7354e0c8af9",
      "contractAddress": null
    },
    {
      "status": "0x1",
      "cumulativeGasUsed": "0x72f55c",
      "logs": [
        {
          "address": "0x53e599211bf49aa2336c3f839ad57e20de3662a3",
          "topics": [
            "0xddf252ad1be2c89b69c2b068fc378daa952ba7f163c4a11628f55a4df523b3ef",
            "0x000000000000000000000000ac380431ec7f6e7c8f43d52f286f638fc9311ca5",
            "0x0000000000000000000000001587932a6c2d90b7beb4536b63d3f17b7c1b1e46"
          ],
          "data": "0x00000000000000000000000000000000000000000000152d02c7e14af6800000",
          "blockHash": "0x17f0f6c4e2d4024526c2616bbacc52871114d9c31435f46271f06c60fb5123b8",
          "blockNumber": "0x51b7ad4",
          "blockTimestamp": "0x69af709f",
          "transactionHash": "0xc2711fafa642ce09983e4ce4f9b044312a31315d306da0c546620dabcd5f2d33",
          "transactionIndex": "0x31",
          "logIndex": "0xef",
          "removed": false
        }
      ],
      "logsBloom": "0x00000000000000000000000000000000000000000000000200000000000000000000000000000000000000000000000000000000000000000000000000000000000400000000000000000008000000000000000001000004000000000000000000000000000000004000000000000000000000000000000000000010000000000000000000000000000000000000000000000000000000000000080002000000000000000000000000000000000000000000000000000000000000000000000000000002000000000000000000000000000000000000008000000000000000000000000000000000000000000000000000000000000000000000000004000000",
      "type": "0x2",
      "transactionHash": "0xc2711fafa642ce09983e4ce4f9b044312a31315d306da0c546620dabcd5f2d33",
      "transactionIndex": "0x31",
      "blockHash": "0x17f0f6c4e2d4024526c2616bbacc52871114d9c31435f46271f06c60fb5123b8",
      "blockNumber": "0x51b7ad4",
      "gasUsed": "0xe52b",
      "effectiveGasPrice": "0x2faf080",
      "from": "0xac380431ec7f6e7c8f43d52f286f638fc9311ca5",
      "to": "0x53e599211bf49aa2336c3f839ad57e20de3662a3",
      "contractAddress": null
    },
    {
      "status": "0x1",
      "cumulativeGasUsed": "0x73de57",
      "logs": [
        {
          "address": "0x8f9ec8107c126e94f5c4df26350fb7354e0c8af9",
          "topics": [
            "0xddf252ad1be2c89b69c2b068fc378daa952ba7f163c4a11628f55a4df523b3ef",
            "0x000000000000000000000000ac380431ec7f6e7c8f43d52f286f638fc9311ca5",
            "0x0000000000000000000000001cc443605c98d951bcf4122a9168d8002ce92980"
          ],
          "data": "0x00000000000000000000000000000000000000000000152d02c7e14af6800000",
          "blockHash": "0x17f0f6c4e2d4024526c2616bbacc52871114d9c31435f46271f06c60fb5123b8",
          "blockNumber": "0x51b7ad4",
          "blockTimestamp": "0x69af709f",
          "transactionHash": "0x54b83f094e576dffa627f74ac2210a8317d1bed8603f9202775a84762765db14",
          "transactionIndex": "0x32",
          "logIndex": "0xf0",
          "removed": false
        }
      ],
      "logsBloom": "0x00000000000000000000000000000000000000000000000000000000000000000000000000000000000000000000000100000000000000000000800000000000000400000000000000000008000000000000000001000000000000000000000000000000000000000000000000000000000000000000000000000010000000000000000000020000000000000000000000000000000000000000080000000000020000000000000000000000000000000000000000000000000000000000000000000002000000000000000000000000000000000000000000000000000000000800000000000000000000000000000000004000000000000000000000000000",
      "type": "0x2",
      "transactionHash": "0x54b83f094e576dffa627f74ac2210a8317d1bed8603f9202775a84762765db14",
      "transactionIndex": "0x32",
      "blockHash": "0x17f0f6c4e2d4024526c2616bbacc52871114d9c31435f46271f06c60fb5123b8",
      "blockNumber": "0x51b7ad4",
      "gasUsed": "0xe8fb",
      "effectiveGasPrice": "0x2faf080",
      "from": "0xac380431ec7f6e7c8f43d52f286f638fc9311ca5",
      "to": "0x8f9ec8107c126e94f5c4df26350fb7354e0c8af9",
      "contractAddress": null
    },
    {
      "status": "0x1",
      "cumulativeGasUsed": "0x74c376",
      "logs": [
        {
          "address": "0x53e599211bf49aa2336c3f839ad57e20de3662a3",
          "topics": [
            "0xddf252ad1be2c89b69c2b068fc378daa952ba7f163c4a11628f55a4df523b3ef",
            "0x000000000000000000000000ac380431ec7f6e7c8f43d52f286f638fc9311ca5",
            "0x0000000000000000000000001cc443605c98d951bcf4122a9168d8002ce92980"
          ],
          "data": "0x00000000000000000000000000000000000000000000152d02c7e14af6800000",
          "blockHash": "0x17f0f6c4e2d4024526c2616bbacc52871114d9c31435f46271f06c60fb5123b8",
          "blockNumber": "0x51b7ad4",
          "blockTimestamp": "0x69af709f",
          "transactionHash": "0x23507ede5be3db7bedc300f53700f75fad697ee8eebfe7cc32e8741c9a0a8f1e",
          "transactionIndex": "0x33",
          "logIndex": "0xf1",
          "removed": false
        }
      ],
      "logsBloom": "0x00000000000000000000000000000000000000000000000200000000000000000000000000000000000000000000000100000000000000000000800000000000000400000000000000000008000000000000000001000000000000000000000000000000000000000000000000000000000000000000000000000010000000000000000000000000000000000000000000000000000000000000080002000000020000000000000000000000000000000000000000000000000000000000000000000002000000000000000000000000000000000000008000000000000000000000000000000000000000000000000000000000000000000000000000000000",
      "type": "0x2",
      "transactionHash": "0x23507ede5be3db7bedc300f53700f75fad697ee8eebfe7cc32e8741c9a0a8f1e",
      "transactionIndex": "0x33",
      "blockHash": "0x17f0f6c4e2d4024526c2616bbacc52871114d9c31435f46271f06c60fb5123b8",
      "blockNumber": "0x51b7ad4",
      "gasUsed": "0xe51f",
      "effectiveGasPrice": "0x2faf080",
      "from": "0xac380431ec7f6e7c8f43d52f286f638fc9311ca5",
      "to": "0x53e599211bf49aa2336c3f839ad57e20de3662a3",
      "contractAddress": null
    },
    {
      "status": "0x1",
      "cumulativeGasUsed": "0x75ac7d",
      "logs": [
        {
          "address": "0x8f9ec8107c126e94f5c4df26350fb7354e0c8af9",
          "topics": [
            "0xddf252ad1be2c89b69c2b068fc378daa952ba7f163c4a11628f55a4df523b3ef",
            "0x000000000000000000000000ac380431ec7f6e7c8f43d52f286f638fc9311ca5",
            "0x00000000000000000000000077165b07a6a5392b28f2d2905b44453aaebf8026"
          ],
          "data": "0x00000000000000000000000000000000000000000000152d02c7e14af6800000",
          "blockHash": "0x17f0f6c4e2d4024526c2616bbacc52871114d9c31435f46271f06c60fb5123b8",
          "blockNumber": "0x51b7ad4",
          "blockTimestamp": "0x69af709f",
          "transactionHash": "0x42daf71a464a6af0cbee47d0de7031fa0afb7f71a85a9fc78699f9ce55856a5c",
          "transactionIndex": "0x34",
          "logIndex": "0xf2",
          "removed": false
        }
      ],
      "logsBloom": "0x00000000000000000000000000000000000000000000000000000000000000000000000000000000000000000000000800000000000000000000000000000000000400000000000000000008000000000000002001000000000000000000000000000000000000000000000000000000000000000000000000000010000000000000000000020000040000000000000000000000000000000000080000000000000000000000000000000000000000000000000000000000000000000000000000000002000000000000000000000000000000000000000000000000000000000800000000000000000000000000000000004000000000000000000000000000",
      "type": "0x2",
      "transactionHash": "0x42daf71a464a6af0cbee47d0de7031fa0afb7f71a85a9fc78699f9ce55856a5c",
      "transactionIndex": "0x34",
      "blockHash": "0x17f0f6c4e2d4024526c2616bbacc52871114d9c31435f46271f06c60fb5123b8",
      "blockNumber": "0x51b7ad4",
      "gasUsed": "0xe907",
      "effectiveGasPrice": "0x2faf080",
      "from": "0xac380431ec7f6e7c8f43d52f286f638fc9311ca5",
      "to": "0x8f9ec8107c126e94f5c4df26350fb7354e0c8af9",
      "contractAddress": null
    },
    {
      "status": "0x1",
      "cumulativeGasUsed": "0x7691a8",
      "logs": [
        {
          "address": "0x53e599211bf49aa2336c3f839ad57e20de3662a3",
          "topics": [
            "0xddf252ad1be2c89b69c2b068fc378daa952ba7f163c4a11628f55a4df523b3ef",
            "0x000000000000000000000000ac380431ec7f6e7c8f43d52f286f638fc9311ca5",
            "0x00000000000000000000000077165b07a6a5392b28f2d2905b44453aaebf8026"
          ],
          "data": "0x00000000000000000000000000000000000000000000152d02c7e14af6800000",
          "blockHash": "0x17f0f6c4e2d4024526c2616bbacc52871114d9c31435f46271f06c60fb5123b8",
          "blockNumber": "0x51b7ad4",
          "blockTimestamp": "0x69af709f",
          "transactionHash": "0xf9f55d47cebf9ce318d9a286914c0182c292c483d05e2b67ab9ee1719ba87d18",
          "transactionIndex": "0x35",
          "logIndex": "0xf3",
          "removed": false
        }
      ],
      "logsBloom": "0x00000000000000000000000000000000000000000000000200000000000000000000000000000000000000000000000800000000000000000000000000000000000400000000000000000008000000000000002001000000000000000000000000000000000000000000000000000000000000000000000000000010000000000000000000000000040000000000000000000000000000000000080002000000000000000000000000000000000000000000000000000000000000000000000000000002000000000000000000000000000000000000008000000000000000000000000000000000000000000000000000000000000000000000000000000000",
      "type": "0x2",
      "transactionHash": "0xf9f55d47cebf9ce318d9a286914c0182c292c483d05e2b67ab9ee1719ba87d18",
      "transactionIndex": "0x35",
      "blockHash": "0x17f0f6c4e2d4024526c2616bbacc52871114d9c31435f46271f06c60fb5123b8",
      "blockNumber": "0x51b7ad4",
      "gasUsed": "0xe52b",
      "effectiveGasPrice": "0x2faf080",
      "from": "0xac380431ec7f6e7c8f43d52f286f638fc9311ca5",
      "to": "0x53e599211bf49aa2336c3f839ad57e20de3662a3",
      "contractAddress": null
    },
    {
      "status": "0x1",
      "cumulativeGasUsed": "0x7776d3",
      "logs": [
        {
          "address": "0x53e599211bf49aa2336c3f839ad57e20de3662a3",
          "topics": [
            "0xddf252ad1be2c89b69c2b068fc378daa952ba7f163c4a11628f55a4df523b3ef",
            "0x000000000000000000000000ac380431ec7f6e7c8f43d52f286f638fc9311ca5",
            "0x000000000000000000000000a61ce04e01943145626efdae37e72570ab5994e3"
          ],
          "data": "0x000000000000000000000000000000000000000000108b2a2c28029094000000",
          "blockHash": "0x17f0f6c4e2d4024526c2616bbacc52871114d9c31435f46271f06c60fb5123b8",
          "blockNumber": "0x51b7ad4",
          "blockTimestamp": "0x69af709f",
          "transactionHash": "0x9b44a20d2f290dacd41282301142fc0cb5609d411b7bb4b8a8f0da3475c07d06",
          "transactionIndex": "0x36",
          "logIndex": "0xf4",
          "removed": false
        }
      ],
      "logsBloom": "0x00000000000000000000000000000000000000000000000200000000000000000000000000000000000000000000000000000008000000000000000000000000000400000000000000000008000008000000000001000000000000000000000000000000000000000000000000000000000000000000000000000010000000000000000000000000000000000000000000000000000000000000080002000000000000000000000000000000000000000000000000000000000000000000400000000002000000000000000000000000000000000000008000000000000000000000000000000000000000000000000000000000000000000000000000000000",
      "type": "0x2",
      "transactionHash": "0x9b44a20d2f290dacd41282301142fc0cb5609d411b7bb4b8a8f0da3475c07d06",
      "transactionIndex": "0x36",
      "blockHash": "0x17f0f6c4e2d4024526c2616bbacc52871114d9c31435f46271f06c60fb5123b8",
      "blockNumber": "0x51b7ad4",
      "gasUsed": "0xe52b",
      "effectiveGasPrice": "0x2faf080",
      "from": "0xac380431ec7f6e7c8f43d52f286f638fc9311ca5",
      "to": "0x53e599211bf49aa2336c3f839ad57e20de3662a3",
      "contractAddress": null
    },
    {
      "status": "0x1",
      "cumulativeGasUsed": "0x785fda",
      "logs": [
        {
          "address": "0x8f9ec8107c126e94f5c4df26350fb7354e0c8af9",
          "topics": [
            "0xddf252ad1be2c89b69c2b068fc378daa952ba7f163c4a11628f55a4df523b3ef",
            "0x000000000000000000000000ac380431ec7f6e7c8f43d52f286f638fc9311ca5",
            "0x0000000000000000000000006a75dcdf3abf38c886f656d22e14d9a972dfca60"
          ],
          "data": "0x00000000000000000000000000000000000000000000152d02c7e14af6800000",
          "blockHash": "0x17f0f6c4e2d4024526c2616bbacc52871114d9c31435f46271f06c60fb5123b8",
          "blockNumber": "0x51b7ad4",
          "blockTimestamp": "0x69af709f",
          "transactionHash": "0x625ce53341cd522e0279a413c285c4c5cf14ad3e4d08848fdb7db6e09f03fcb8",
          "transactionIndex": "0x37",
          "logIndex": "0xf5",
          "removed": false
        }
      ],
      "logsBloom": "0x00040000000000000000000000000000000000000000000000000000000000000000000000000000000000000000000000000000000000000000000000000000000400000000000000000008000000000000000001000000000000000000000000000000000000000000000000000000000000000000000000000010000000000000000000020001000000000000000000000000000000000000080002000000000000000000000000000000000000000000000000000000000000000000000000000002000000000000000000000000000000000000000000000000000000000800000000000000000000000000000000004000000000000000000000000000",
      "type": "0x2",
      "transactionHash": "0x625ce53341cd522e0279a413c285c4c5cf14ad3e4d08848fdb7db6e09f03fcb8",
      "transactionIndex": "0x37",
      "blockHash": "0x17f0f6c4e2d4024526c2616bbacc52871114d9c31435f46271f06c60fb5123b8",
      "blockNumber": "0x51b7ad4",
      "gasUsed": "0xe907",
      "effectiveGasPrice": "0x2faf080",
      "from": "0xac380431ec7f6e7c8f43d52f286f638fc9311ca5",
      "to": "0x8f9ec8107c126e94f5c4df26350fb7354e0c8af9",
      "contractAddress": null
    },
    {
      "status": "0x1",
      "cumulativeGasUsed": "0x7944f9",
      "logs": [
        {
          "address": "0x53e599211bf49aa2336c3f839ad57e20de3662a3",
          "topics": [
            "0xddf252ad1be2c89b69c2b068fc378daa952ba7f163c4a11628f55a4df523b3ef",
            "0x000000000000000000000000ac380431ec7f6e7c8f43d52f286f638fc9311ca5",
            "0x0000000000000000000000006a75dcdf3abf38c886f656d22e14d9a972dfca60"
          ],
          "data": "0x000000000000000000000000000000000000000000002a5a058fc295ed000000",
          "blockHash": "0x17f0f6c4e2d4024526c2616bbacc52871114d9c31435f46271f06c60fb5123b8",
          "blockNumber": "0x51b7ad4",
          "blockTimestamp": "0x69af709f",
          "transactionHash": "0xcbc6216367e2e358710471191ccf367e339ea05c4ca9e6e8dd5e6812bf561161",
          "transactionIndex": "0x38",
          "logIndex": "0xf6",
          "removed": false
        }
      ],
      "logsBloom": "0x00040000000000000000000000000000000000000000000200000000000000000000000000000000000000000000000000000000000000000000000000000000000400000000000000000008000000000000000001000000000000000000000000000000000000000000000000000000000000000000000000000010000000000000000000000001000000000000000000000000000000000000080002000000000000000000000000000000000000000000000000000000000000000000000000000002000000000000000000000000000000000000008000000000000000000000000000000000000000000000000000000000000000000000000000000000",
      "type": "0x2",
      "transactionHash": "0xcbc6216367e2e358710471191ccf367e339ea05c4ca9e6e8dd5e6812bf561161",
      "transactionIndex": "0x38",
      "blockHash": "0x17f0f6c4e2d4024526c2616bbacc52871114d9c31435f46271f06c60fb5123b8",
      "blockNumber": "0x51b7ad4",
      "gasUsed": "0xe51f",
      "effectiveGasPrice": "0x2faf080",
      "from": "0xac380431ec7f6e7c8f43d52f286f638fc9311ca5",
      "to": "0x53e599211bf49aa2336c3f839ad57e20de3662a3",
      "contractAddress": null
    },
    {
      "status": "0x1",
      "cumulativeGasUsed": "0x7a2a24",
      "logs": [
        {
          "address": "0x53e599211bf49aa2336c3f839ad57e20de3662a3",
          "topics": [
            "0xddf252ad1be2c89b69c2b068fc378daa952ba7f163c4a11628f55a4df523b3ef",
            "0x000000000000000000000000ac380431ec7f6e7c8f43d52f286f638fc9311ca5",
            "0x000000000000000000000000199b5fcc49092de043397866b11008f4cb60ce3a"
          ],
          "data": "0x000000000000000000000000000000000000000000003f870857a3e0e3800000",
          "blockHash": "0x17f0f6c4e2d4024526c2616bbacc52871114d9c31435f46271f06c60fb5123b8",
          "blockNumber": "0x51b7ad4",
          "blockTimestamp": "0x69af709f",
          "transactionHash": "0xf2df652953530a414e0b1cfb4ccd0b67e0d59189db8591294167b82a2a7765df",
          "transactionIndex": "0x39",
          "logIndex": "0xf7",
          "removed": false
        }
      ],
      "logsBloom": "0x00000000000000000000000001000000000000000000000200000000000000000000000000000000000000000000000000000000000000000000000000000000000400000000000000000008000000000000000001000000000000000000000000000000002000000000000000000000000000000000000000000010000000000000000000000000000000000000000000000000000000000000080002000000000000000000000000000000000000000000000000000000000000000000000000000002000000000000000000000000000000000000008000000000000010000000000000000000000000000000000000000000000000000000000000000000",
      "type": "0x2",
      "transactionHash": "0xf2df652953530a414e0b1cfb4ccd0b67e0d59189db8591294167b82a2a7765df",
      "transactionIndex": "0x39",
      "blockHash": "0x17f0f6c4e2d4024526c2616bbacc52871114d9c31435f46271f06c60fb5123b8",
      "blockNumber": "0x51b7ad4",
      "gasUsed": "0xe52b",
      "effectiveGasPrice": "0x2faf080",
      "from": "0xac380431ec7f6e7c8f43d52f286f638fc9311ca5",
      "to": "0x53e599211bf49aa2336c3f839ad57e20de3662a3",
      "contractAddress": null
    }
  ],
  "libraries": [],
  "pending": [],
  "returns": {},
  "timestamp": 1773105312354,
  "chain": 56,
  "commit": "806433f"
}